{"contracts/MultiMerkleStash.sol":{"MultiMerkleStash":{"abi":[{"inputs":[{"internalType":"address","name":"token","type":"address"}],"name":"SafeERC20FailedOperation","type":"error"},{"anonymous":false,"inputs":[{"indexed":true,"internalType":"address","name":"token","type":"address"},{"indexed":false,"internalType":"uint256","name":"index","type":"uint256"},{"indexed":false,"internalType":"uint256","name":"amount","type":"uint256"},{"indexed":true,"internalType":"address","name":"account","type":"address"},{"indexed":true,"internalType":"uint256","name":"update","type":"uint256"}],"name":"Claimed","type":"event"},{"anonymous":false,"inputs":[{"indexed":true,"internalType":"address","name":"token","type":"address"},{"indexed":true,"internalType":"bytes32","name":"merkleRoot","type":"bytes32"},{"indexed":true,"internalType":"uint256","name":"update","type":"uint256"}],"name":"MerkleRootUpdated","type":"event"},{"anonymous":false,"inputs":[{"indexed":true,"internalType":"address","name":"previousOwner","type":"address"},{"indexed":true,"internalType":"address","name":"newOwner","type":"address"}],"name":"OwnershipTransferred","type":"event"},{"inputs":[{"internalType":"address","name":"token","type":"address"},{"internalType":"uint256","name":"index","type":"uint256"},{"internalType":"address","name":"account","type":"address"},{"internalType":"uint256","name":"amount","type":"uint256"},{"internalType":"bytes32[]","name":"merkleProof","type":"bytes32[]"}],"name":"claim","outputs":[],"stateMutability":"nonpayable","type":"function"},{"inputs":[{"internalType":"address","name":"account","type":"address"},{"components":[{"internalType":"address","name":"token","type":"address"},{"internalType":"uint256","name":"index","type":"uint256"},{"internalType":"uint256","name":"amount","type":"uint256"},{"internalType":"bytes32[]","name":"merkleProof","type":"bytes32[]"}],"internalType":"struct MultiMerkleStash.claimParam[]","name":"claims","type":"tuple[]"}],"name":"claimMulti","outputs":[],"stateMutability":"nonpayable","type":"function"},{"inputs":[{"internalType":"address","name":"token","type":"address"},{"internalType":"uint256","name":"index","type":"uint256"}],"name":"isClaimed","outputs":[{"internalType":"bool","name":"","type":"bool"}],"stateMutability":"view","type":"function"},{"inputs":[{"internalType":"address","name":"","type":"address"}],"name":"merkleRoot","outputs":[{"internalType":"bytes32","name":"","type":"bytes32"}],"stateMutability":"view","type":"function"},{"inputs":[],"name":"owner","outputs":[{"internalType":"address","name":"","type":"address"}],"stateMutability":"view","type":"function"},{"inputs":[],"name":"renounceOwnership","outputs":[],"stateMutability":"nonpayable","type":"function"},{"inputs":[{"internalType":"address","name":"newOwner","type":"address"}],"name":"transferOwnership","outputs":[],"stateMutability":"nonpayable","type":"function"},{"inputs":[{"internalType":"address","name":"","type":"address"}],"name":"update","outputs":[{"internalType":"uint256","name":"","type":"uint256"}],"stateMutability":"view","type":"function"},{"inputs":[{"internalType":"address","name":"token","type":"address"},{"internalType":"bytes32","name":"_merkleRoot","type":"bytes32"}],"name":"updateMerkleRoot","outputs":[],"stateMutability":"nonpayable","type":"function"}],"evm":{"bytecode":{"linkReferences":{},"object":"6080604052600080546001600160a01b03191673f930ebbd05ef8b25b1797b9b2109ddc9b0d4306317905534801561003657600080fd5b50610e9e806100466000396000f3fe608060405234801561001057600080fd5b50600436106100a35760003560e01c8063715018a611610076578063e21115861161005b578063e211158614610156578063e786818e14610176578063f2fde38b1461018957600080fd5b8063715018a6146101265780638da5cb5b1461012e57600080fd5b806312d18ed6146100a85780631c1b8772146100bd57806320ce64de146100f0578063562beba814610103575b600080fd5b6100bb6100b6366004610bb2565b61019c565b005b6100dd6100cb366004610c2a565b60026020526000908152604090205481565b6040519081526020015b60405180910390f35b6100bb6100fe366004610c45565b61045f565b610116610111366004610c98565b610538565b60405190151581526020016100e7565b6100bb6105ae565b60005460405173ffffffffffffffffffffffffffffffffffffffff90911681526020016100e7565b6100dd610164366004610c2a565b60016020526000908152604090205481565b6100bb610184366004610c98565b61063b565b6100bb610197366004610c2a565b61075b565b73ffffffffffffffffffffffffffffffffffffffff8616600090815260016020526040812054900361022f576040517f08c379a000000000000000000000000000000000000000000000000000000000815260206004820152600660248201527f66726f7a656e000000000000000000000000000000000000000000000000000060448201526064015b60405180910390fd5b6102398686610538565b156102a0576040517f08c379a000000000000000000000000000000000000000000000000000000000815260206004820152601560248201527f44726f7020616c726561647920636c61696d65642e00000000000000000000006044820152606401610226565b60408051602081018790527fffffffffffffffffffffffffffffffffffffffff000000000000000000000000606087901b16918101919091526054810184905260009060740160405160208183030381529060405280519060200120905061035f838380806020026020016040519081016040528093929190818152602001838360200280828437600092018290525073ffffffffffffffffffffffffffffffffffffffff8d16815260016020526040902054925085915061088b9050565b6103c5576040517f08c379a000000000000000000000000000000000000000000000000000000000815260206004820152600e60248201527f496e76616c69642070726f6f662e0000000000000000000000000000000000006044820152606401610226565b6103cf87876108a1565b6103f073ffffffffffffffffffffffffffffffffffffffff88168686610913565b73ffffffffffffffffffffffffffffffffffffffff8781166000818152600260209081526040918290205482518b815291820189905293891692917f4766921f5c59646d22d7d266a29164c8e9623684d8dfdbd931731dfdca025238910160405180910390a450505050505050565b60005b818110156105325761052283838381811061047f5761047f610cc2565b90506020028101906104919190610cf1565b61049f906020810190610c2a565b8484848181106104b1576104b1610cc2565b90506020028101906104c39190610cf1565b60200135868686868181106104da576104da610cc2565b90506020028101906104ec9190610cf1565b6040013587878781811061050257610502610cc2565b90506020028101906105149190610cf1565b6100b6906060810190610d2f565b61052b81610dc6565b9050610462565b50505050565b60008061054761010084610e2d565b9050600061055761010085610e41565b73ffffffffffffffffffffffffffffffffffffffff861660009081526003602090815260408083206002835281842054845282528083209583529490529290922054600190921b9182169091149150505b92915050565b60005473ffffffffffffffffffffffffffffffffffffffff16331461062f576040517f08c379a000000000000000000000000000000000000000000000000000000000815260206004820181905260248201527f4f776e61626c653a2063616c6c6572206973206e6f7420746865206f776e65726044820152606401610226565b61063960006109a5565b565b60005473ffffffffffffffffffffffffffffffffffffffff1633146106bc576040517f08c379a000000000000000000000000000000000000000000000000000000000815260206004820181905260248201527f4f776e61626c653a2063616c6c6572206973206e6f7420746865206f776e65726044820152606401610226565b73ffffffffffffffffffffffffffffffffffffffff821660009081526002602052604081208054600192906106f2908490610e55565b909155505073ffffffffffffffffffffffffffffffffffffffff8216600081815260016020908152604080832085905560029091528082205490519092849290917fbdc375de8a677af383c6ee6f8b2027dbd231c3c47453ce81d1ce8f1bcdb722dc9190a45050565b60005473ffffffffffffffffffffffffffffffffffffffff1633146107dc576040517f08c379a000000000000000000000000000000000000000000000000000000000815260206004820181905260248201527f4f776e61626c653a2063616c6c6572206973206e6f7420746865206f776e65726044820152606401610226565b73ffffffffffffffffffffffffffffffffffffffff811661087f576040517f08c379a000000000000000000000000000000000000000000000000000000000815260206004820152602660248201527f4f776e61626c653a206e6577206f776e657220697320746865207a65726f206160448201527f64647265737300000000000000000000000000000000000000000000000000006064820152608401610226565b610888816109a5565b50565b6000826108988584610a1a565b14949350505050565b60006108af61010083610e2d565b905060006108bf61010084610e41565b73ffffffffffffffffffffffffffffffffffffffff949094166000908152600360209081526040808320600283528184205484528252808320948352939052919091208054600190941b9093179092555050565b6040805173ffffffffffffffffffffffffffffffffffffffff8416602482015260448082018490528251808303909101815260649091019091526020810180517bffffffffffffffffffffffffffffffffffffffffffffffffffffffff167fa9059cbb000000000000000000000000000000000000000000000000000000001790526109a0908490610a67565b505050565b6000805473ffffffffffffffffffffffffffffffffffffffff8381167fffffffffffffffffffffffff0000000000000000000000000000000000000000831681178455604051919092169283917f8be0079c531659141344cd1fd0a4f28419497f9722a3daafe3b4186f6b6457e09190a35050565b600081815b8451811015610a5f57610a4b82868381518110610a3e57610a3e610cc2565b6020026020010151610b0b565b915080610a5781610dc6565b915050610a1f565b509392505050565b600080602060008451602086016000885af180610a8a576040513d6000823e3d81fd5b50506000513d91508115610aa2578060011415610abc565b73ffffffffffffffffffffffffffffffffffffffff84163b155b15610532576040517f5274afe700000000000000000000000000000000000000000000000000000000815273ffffffffffffffffffffffffffffffffffffffff85166004820152602401610226565b6000818310610b27576000828152602084905260409020610b36565b60008381526020839052604090205b9392505050565b803573ffffffffffffffffffffffffffffffffffffffff81168114610b6157600080fd5b919050565b60008083601f840112610b7857600080fd5b50813567ffffffffffffffff811115610b9057600080fd5b6020830191508360208260051b8501011115610bab57600080fd5b9250929050565b60008060008060008060a08789031215610bcb57600080fd5b610bd487610b3d565b955060208701359450610be960408801610b3d565b935060608701359250608087013567ffffffffffffffff811115610c0c57600080fd5b610c1889828a01610b66565b979a9699509497509295939492505050565b600060208284031215610c3c57600080fd5b610b3682610b3d565b600080600060408486031215610c5a57600080fd5b610c6384610b3d565b9250602084013567ffffffffffffffff811115610c7f57600080fd5b610c8b86828701610b66565b9497909650939450505050565b60008060408385031215610cab57600080fd5b610cb483610b3d565b946020939093013593505050565b7f4e487b7100000000000000000000000000000000000000000000000000000000600052603260045260246000fd5b600082357fffffffffffffffffffffffffffffffffffffffffffffffffffffffffffffff81833603018112610d2557600080fd5b9190910192915050565b60008083357fffffffffffffffffffffffffffffffffffffffffffffffffffffffffffffffe1843603018112610d6457600080fd5b83018035915067ffffffffffffffff821115610d7f57600080fd5b6020019150600581901b3603821315610bab57600080fd5b7f4e487b7100000000000000000000000000000000000000000000000000000000600052601160045260246000fd5b60007fffffffffffffffffffffffffffffffffffffffffffffffffffffffffffffffff8203610df757610df7610d97565b5060010190565b7f4e487b7100000000000000000000000000000000000000000000000000000000600052601260045260246000fd5b600082610e3c57610e3c610dfe565b500490565b600082610e5057610e50610dfe565b500690565b808201808211156105a8576105a8610d9756fea2646970667358221220f8a88173524a7dc4414f8edfb8a1eec91d3d3d4b89393e8390590989331992ef64736f6c63430008140033","opcodes":"PUSH1 0x80 PUSH1 0x40 MSTORE PUSH1 0x0 DUP1 SLOAD PUSH1 0x1 PUSH1 0x1 PUSH1 0xA0 SHL SUB NOT AND PUSH20 0xF930EBBD05EF8B25B1797B9B2109DDC9B0D43063 OR SWAP1 SSTORE CALLVALUE DUP1 ISZERO PUSH2 0x36 JUMPI PUSH1 0x0 DUP1 REVERT JUMPDEST POP PUSH2 0xE9E DUP1 PUSH2 0x46 PUSH1 0x0 CODECOPY PUSH1 0x0 RETURN INVALID PUSH1 0x80 PUSH1 0x40 MSTORE CALLVALUE DUP1 ISZERO PUSH2 0x10 JUMPI PUSH1 0x0 DUP1 REVERT JUMPDEST POP PUSH1 0x4 CALLDATASIZE LT PUSH2 0xA3 JUMPI PUSH1 0x0 CALLDATALOAD PUSH1 0xE0 SHR DUP1 PUSH4 0x715018A6 GT PUSH2 0x76 JUMPI DUP1 PUSH4 0xE2111586 GT PUSH2 0x5B JUMPI DUP1 PUSH4 0xE2111586 EQ PUSH2 0x156 JUMPI DUP1 PUSH4 0xE786818E EQ PUSH2 0x176 JUMPI DUP1 PUSH4 0xF2FDE38B EQ PUSH2 0x189 JUMPI PUSH1 0x0 DUP1 REVERT JUMPDEST DUP1 PUSH4 0x715018A6 EQ PUSH2 0x126 JUMPI DUP1 PUSH4 0x8DA5CB5B EQ PUSH2 0x12E JUMPI PUSH1 0x0 DUP1 REVERT JUMPDEST DUP1 PUSH4 0x12D18ED6 EQ PUSH2 0xA8 JUMPI DUP1 PUSH4 0x1C1B8772 EQ PUSH2 0xBD JUMPI DUP1 PUSH4 0x20CE64DE EQ PUSH2 0xF0 JUMPI DUP1 PUSH4 0x562BEBA8 EQ PUSH2 0x103 JUMPI JUMPDEST PUSH1 0x0 DUP1 REVERT JUMPDEST PUSH2 0xBB PUSH2 0xB6 CALLDATASIZE PUSH1 0x4 PUSH2 0xBB2 JUMP JUMPDEST PUSH2 0x19C JUMP JUMPDEST STOP JUMPDEST PUSH2 0xDD PUSH2 0xCB CALLDATASIZE PUSH1 0x4 PUSH2 0xC2A JUMP JUMPDEST PUSH1 0x2 PUSH1 0x20 MSTORE PUSH1 0x0 SWAP1 DUP2 MSTORE PUSH1 0x40 SWAP1 KECCAK256 SLOAD DUP2 JUMP JUMPDEST PUSH1 0x40 MLOAD SWAP1 DUP2 MSTORE PUSH1 0x20 ADD JUMPDEST PUSH1 0x40 MLOAD DUP1 SWAP2 SUB SWAP1 RETURN JUMPDEST PUSH2 0xBB PUSH2 0xFE CALLDATASIZE PUSH1 0x4 PUSH2 0xC45 JUMP JUMPDEST PUSH2 0x45F JUMP JUMPDEST PUSH2 0x116 PUSH2 0x111 CALLDATASIZE PUSH1 0x4 PUSH2 0xC98 JUMP JUMPDEST PUSH2 0x538 JUMP JUMPDEST PUSH1 0x40 MLOAD SWAP1 ISZERO ISZERO DUP2 MSTORE PUSH1 0x20 ADD PUSH2 0xE7 JUMP JUMPDEST PUSH2 0xBB PUSH2 0x5AE JUMP JUMPDEST PUSH1 0x0 SLOAD PUSH1 0x40 MLOAD PUSH20 0xFFFFFFFFFFFFFFFFFFFFFFFFFFFFFFFFFFFFFFFF SWAP1 SWAP2 AND DUP2 MSTORE PUSH1 0x20 ADD PUSH2 0xE7 JUMP JUMPDEST PUSH2 0xDD PUSH2 0x164 CALLDATASIZE PUSH1 0x4 PUSH2 0xC2A JUMP JUMPDEST PUSH1 0x1 PUSH1 0x20 MSTORE PUSH1 0x0 SWAP1 DUP2 MSTORE PUSH1 0x40 SWAP1 KECCAK256 SLOAD DUP2 JUMP JUMPDEST PUSH2 0xBB PUSH2 0x184 CALLDATASIZE PUSH1 0x4 PUSH2 0xC98 JUMP JUMPDEST PUSH2 0x63B JUMP JUMPDEST PUSH2 0xBB PUSH2 0x197 CALLDATASIZE PUSH1 0x4 PUSH2 0xC2A JUMP JUMPDEST PUSH2 0x75B JUMP JUMPDEST PUSH20 0xFFFFFFFFFFFFFFFFFFFFFFFFFFFFFFFFFFFFFFFF DUP7 AND PUSH1 0x0 SWAP1 DUP2 MSTORE PUSH1 0x1 PUSH1 0x20 MSTORE PUSH1 0x40 DUP2 KECCAK256 SLOAD SWAP1 SUB PUSH2 0x22F JUMPI PUSH1 0x40 MLOAD PUSH32 0x8C379A000000000000000000000000000000000000000000000000000000000 DUP2 MSTORE PUSH1 0x20 PUSH1 0x4 DUP3 ADD MSTORE PUSH1 0x6 PUSH1 0x24 DUP3 ADD MSTORE PUSH32 0x66726F7A656E0000000000000000000000000000000000000000000000000000 PUSH1 0x44 DUP3 ADD MSTORE PUSH1 0x64 ADD JUMPDEST PUSH1 0x40 MLOAD DUP1 SWAP2 SUB SWAP1 REVERT JUMPDEST PUSH2 0x239 DUP7 DUP7 PUSH2 0x538 JUMP JUMPDEST ISZERO PUSH2 0x2A0 JUMPI PUSH1 0x40 MLOAD PUSH32 0x8C379A000000000000000000000000000000000000000000000000000000000 DUP2 MSTORE PUSH1 0x20 PUSH1 0x4 DUP3 ADD MSTORE PUSH1 0x15 PUSH1 0x24 DUP3 ADD MSTORE PUSH32 0x44726F7020616C726561647920636C61696D65642E0000000000000000000000 PUSH1 0x44 DUP3 ADD MSTORE PUSH1 0x64 ADD PUSH2 0x226 JUMP JUMPDEST PUSH1 0x40 DUP1 MLOAD PUSH1 0x20 DUP2 ADD DUP8 SWAP1 MSTORE PUSH32 0xFFFFFFFFFFFFFFFFFFFFFFFFFFFFFFFFFFFFFFFF000000000000000000000000 PUSH1 0x60 DUP8 SWAP1 SHL AND SWAP2 DUP2 ADD SWAP2 SWAP1 SWAP2 MSTORE PUSH1 0x54 DUP2 ADD DUP5 SWAP1 MSTORE PUSH1 0x0 SWAP1 PUSH1 0x74 ADD PUSH1 0x40 MLOAD PUSH1 0x20 DUP2 DUP4 SUB SUB DUP2 MSTORE SWAP1 PUSH1 0x40 MSTORE DUP1 MLOAD SWAP1 PUSH1 0x20 ADD KECCAK256 SWAP1 POP PUSH2 0x35F DUP4 DUP4 DUP1 DUP1 PUSH1 0x20 MUL PUSH1 0x20 ADD PUSH1 0x40 MLOAD SWAP1 DUP2 ADD PUSH1 0x40 MSTORE DUP1 SWAP4 SWAP3 SWAP2 SWAP1 DUP2 DUP2 MSTORE PUSH1 0x20 ADD DUP4 DUP4 PUSH1 0x20 MUL DUP1 DUP3 DUP5 CALLDATACOPY PUSH1 0x0 SWAP3 ADD DUP3 SWAP1 MSTORE POP PUSH20 0xFFFFFFFFFFFFFFFFFFFFFFFFFFFFFFFFFFFFFFFF DUP14 AND DUP2 MSTORE PUSH1 0x1 PUSH1 0x20 MSTORE PUSH1 0x40 SWAP1 KECCAK256 SLOAD SWAP3 POP DUP6 SWAP2 POP PUSH2 0x88B SWAP1 POP JUMP JUMPDEST PUSH2 0x3C5 JUMPI PUSH1 0x40 MLOAD PUSH32 0x8C379A000000000000000000000000000000000000000000000000000000000 DUP2 MSTORE PUSH1 0x20 PUSH1 0x4 DUP3 ADD MSTORE PUSH1 0xE PUSH1 0x24 DUP3 ADD MSTORE PUSH32 0x496E76616C69642070726F6F662E000000000000000000000000000000000000 PUSH1 0x44 DUP3 ADD MSTORE PUSH1 0x64 ADD PUSH2 0x226 JUMP JUMPDEST PUSH2 0x3CF DUP8 DUP8 PUSH2 0x8A1 JUMP JUMPDEST PUSH2 0x3F0 PUSH20 0xFFFFFFFFFFFFFFFFFFFFFFFFFFFFFFFFFFFFFFFF DUP9 AND DUP7 DUP7 PUSH2 0x913 JUMP JUMPDEST PUSH20 0xFFFFFFFFFFFFFFFFFFFFFFFFFFFFFFFFFFFFFFFF DUP8 DUP2 AND PUSH1 0x0 DUP2 DUP2 MSTORE PUSH1 0x2 PUSH1 0x20 SWAP1 DUP2 MSTORE PUSH1 0x40 SWAP2 DUP3 SWAP1 KECCAK256 SLOAD DUP3 MLOAD DUP12 DUP2 MSTORE SWAP2 DUP3 ADD DUP10 SWAP1 MSTORE SWAP4 DUP10 AND SWAP3 SWAP2 PUSH32 0x4766921F5C59646D22D7D266A29164C8E9623684D8DFDBD931731DFDCA025238 SWAP2 ADD PUSH1 0x40 MLOAD DUP1 SWAP2 SUB SWAP1 LOG4 POP POP POP POP POP POP POP JUMP JUMPDEST PUSH1 0x0 JUMPDEST DUP2 DUP2 LT ISZERO PUSH2 0x532 JUMPI PUSH2 0x522 DUP4 DUP4 DUP4 DUP2 DUP2 LT PUSH2 0x47F JUMPI PUSH2 0x47F PUSH2 0xCC2 JUMP JUMPDEST SWAP1 POP PUSH1 0x20 MUL DUP2 ADD SWAP1 PUSH2 0x491 SWAP2 SWAP1 PUSH2 0xCF1 JUMP JUMPDEST PUSH2 0x49F SWAP1 PUSH1 0x20 DUP2 ADD SWAP1 PUSH2 0xC2A JUMP JUMPDEST DUP5 DUP5 DUP5 DUP2 DUP2 LT PUSH2 0x4B1 JUMPI PUSH2 0x4B1 PUSH2 0xCC2 JUMP JUMPDEST SWAP1 POP PUSH1 0x20 MUL DUP2 ADD SWAP1 PUSH2 0x4C3 SWAP2 SWAP1 PUSH2 0xCF1 JUMP JUMPDEST PUSH1 0x20 ADD CALLDATALOAD DUP7 DUP7 DUP7 DUP7 DUP2 DUP2 LT PUSH2 0x4DA JUMPI PUSH2 0x4DA PUSH2 0xCC2 JUMP JUMPDEST SWAP1 POP PUSH1 0x20 MUL DUP2 ADD SWAP1 PUSH2 0x4EC SWAP2 SWAP1 PUSH2 0xCF1 JUMP JUMPDEST PUSH1 0x40 ADD CALLDATALOAD DUP8 DUP8 DUP8 DUP2 DUP2 LT PUSH2 0x502 JUMPI PUSH2 0x502 PUSH2 0xCC2 JUMP JUMPDEST SWAP1 POP PUSH1 0x20 MUL DUP2 ADD SWAP1 PUSH2 0x514 SWAP2 SWAP1 PUSH2 0xCF1 JUMP JUMPDEST PUSH2 0xB6 SWAP1 PUSH1 0x60 DUP2 ADD SWAP1 PUSH2 0xD2F JUMP JUMPDEST PUSH2 0x52B DUP2 PUSH2 0xDC6 JUMP JUMPDEST SWAP1 POP PUSH2 0x462 JUMP JUMPDEST POP POP POP POP JUMP JUMPDEST PUSH1 0x0 DUP1 PUSH2 0x547 PUSH2 0x100 DUP5 PUSH2 0xE2D JUMP JUMPDEST SWAP1 POP PUSH1 0x0 PUSH2 0x557 PUSH2 0x100 DUP6 PUSH2 0xE41 JUMP JUMPDEST PUSH20 0xFFFFFFFFFFFFFFFFFFFFFFFFFFFFFFFFFFFFFFFF DUP7 AND PUSH1 0x0 SWAP1 DUP2 MSTORE PUSH1 0x3 PUSH1 0x20 SWAP1 DUP2 MSTORE PUSH1 0x40 DUP1 DUP4 KECCAK256 PUSH1 0x2 DUP4 MSTORE DUP2 DUP5 KECCAK256 SLOAD DUP5 MSTORE DUP3 MSTORE DUP1 DUP4 KECCAK256 SWAP6 DUP4 MSTORE SWAP5 SWAP1 MSTORE SWAP3 SWAP1 SWAP3 KECCAK256 SLOAD PUSH1 0x1 SWAP1 SWAP3 SHL SWAP2 DUP3 AND SWAP1 SWAP2 EQ SWAP2 POP POP JUMPDEST SWAP3 SWAP2 POP POP JUMP JUMPDEST PUSH1 0x0 SLOAD PUSH20 0xFFFFFFFFFFFFFFFFFFFFFFFFFFFFFFFFFFFFFFFF AND CALLER EQ PUSH2 0x62F JUMPI PUSH1 0x40 MLOAD PUSH32 0x8C379A000000000000000000000000000000000000000000000000000000000 DUP2 MSTORE PUSH1 0x20 PUSH1 0x4 DUP3 ADD DUP2 SWAP1 MSTORE PUSH1 0x24 DUP3 ADD MSTORE PUSH32 0x4F776E61626C653A2063616C6C6572206973206E6F7420746865206F776E6572 PUSH1 0x44 DUP3 ADD MSTORE PUSH1 0x64 ADD PUSH2 0x226 JUMP JUMPDEST PUSH2 0x639 PUSH1 0x0 PUSH2 0x9A5 JUMP JUMPDEST JUMP JUMPDEST PUSH1 0x0 SLOAD PUSH20 0xFFFFFFFFFFFFFFFFFFFFFFFFFFFFFFFFFFFFFFFF AND CALLER EQ PUSH2 0x6BC JUMPI PUSH1 0x40 MLOAD PUSH32 0x8C379A000000000000000000000000000000000000000000000000000000000 DUP2 MSTORE PUSH1 0x20 PUSH1 0x4 DUP3 ADD DUP2 SWAP1 MSTORE PUSH1 0x24 DUP3 ADD MSTORE PUSH32 0x4F776E61626C653A2063616C6C6572206973206E6F7420746865206F776E6572 PUSH1 0x44 DUP3 ADD MSTORE PUSH1 0x64 ADD PUSH2 0x226 JUMP JUMPDEST PUSH20 0xFFFFFFFFFFFFFFFFFFFFFFFFFFFFFFFFFFFFFFFF DUP3 AND PUSH1 0x0 SWAP1 DUP2 MSTORE PUSH1 0x2 PUSH1 0x20 MSTORE PUSH1 0x40 DUP2 KECCAK256 DUP1 SLOAD PUSH1 0x1 SWAP3 SWAP1 PUSH2 0x6F2 SWAP1 DUP5 SWAP1 PUSH2 0xE55 JUMP JUMPDEST SWAP1 SWAP2 SSTORE POP POP PUSH20 0xFFFFFFFFFFFFFFFFFFFFFFFFFFFFFFFFFFFFFFFF DUP3 AND PUSH1 0x0 DUP2 DUP2 MSTORE PUSH1 0x1 PUSH1 0x20 SWAP1 DUP2 MSTORE PUSH1 0x40 DUP1 DUP4 KECCAK256 DUP6 SWAP1 SSTORE PUSH1 0x2 SWAP1 SWAP2 MSTORE DUP1 DUP3 KECCAK256 SLOAD SWAP1 MLOAD SWAP1 SWAP3 DUP5 SWAP3 SWAP1 SWAP2 PUSH32 0xBDC375DE8A677AF383C6EE6F8B2027DBD231C3C47453CE81D1CE8F1BCDB722DC SWAP2 SWAP1 LOG4 POP POP JUMP JUMPDEST PUSH1 0x0 SLOAD PUSH20 0xFFFFFFFFFFFFFFFFFFFFFFFFFFFFFFFFFFFFFFFF AND CALLER EQ PUSH2 0x7DC JUMPI PUSH1 0x40 MLOAD PUSH32 0x8C379A000000000000000000000000000000000000000000000000000000000 DUP2 MSTORE PUSH1 0x20 PUSH1 0x4 DUP3 ADD DUP2 SWAP1 MSTORE PUSH1 0x24 DUP3 ADD MSTORE PUSH32 0x4F776E61626C653A2063616C6C6572206973206E6F7420746865206F776E6572 PUSH1 0x44 DUP3 ADD MSTORE PUSH1 0x64 ADD PUSH2 0x226 JUMP JUMPDEST PUSH20 0xFFFFFFFFFFFFFFFFFFFFFFFFFFFFFFFFFFFFFFFF DUP2 AND PUSH2 0x87F JUMPI PUSH1 0x40 MLOAD PUSH32 0x8C379A000000000000000000000000000000000000000000000000000000000 DUP2 MSTORE PUSH1 0x20 PUSH1 0x4 DUP3 ADD MSTORE PUSH1 0x26 PUSH1 0x24 DUP3 ADD MSTORE PUSH32 0x4F776E61626C653A206E6577206F776E657220697320746865207A65726F2061 PUSH1 0x44 DUP3 ADD MSTORE PUSH32 0x6464726573730000000000000000000000000000000000000000000000000000 PUSH1 0x64 DUP3 ADD MSTORE PUSH1 0x84 ADD PUSH2 0x226 JUMP JUMPDEST PUSH2 0x888 DUP2 PUSH2 0x9A5 JUMP JUMPDEST POP JUMP JUMPDEST PUSH1 0x0 DUP3 PUSH2 0x898 DUP6 DUP5 PUSH2 0xA1A JUMP JUMPDEST EQ SWAP5 SWAP4 POP POP POP POP JUMP JUMPDEST PUSH1 0x0 PUSH2 0x8AF PUSH2 0x100 DUP4 PUSH2 0xE2D JUMP JUMPDEST SWAP1 POP PUSH1 0x0 PUSH2 0x8BF PUSH2 0x100 DUP5 PUSH2 0xE41 JUMP JUMPDEST PUSH20 0xFFFFFFFFFFFFFFFFFFFFFFFFFFFFFFFFFFFFFFFF SWAP5 SWAP1 SWAP5 AND PUSH1 0x0 SWAP1 DUP2 MSTORE PUSH1 0x3 PUSH1 0x20 SWAP1 DUP2 MSTORE PUSH1 0x40 DUP1 DUP4 KECCAK256 PUSH1 0x2 DUP4 MSTORE DUP2 DUP5 KECCAK256 SLOAD DUP5 MSTORE DUP3 MSTORE DUP1 DUP4 KECCAK256 SWAP5 DUP4 MSTORE SWAP4 SWAP1 MSTORE SWAP2 SWAP1 SWAP2 KECCAK256 DUP1 SLOAD PUSH1 0x1 SWAP1 SWAP5 SHL SWAP1 SWAP4 OR SWAP1 SWAP3 SSTORE POP POP JUMP JUMPDEST PUSH1 0x40 DUP1 MLOAD PUSH20 0xFFFFFFFFFFFFFFFFFFFFFFFFFFFFFFFFFFFFFFFF DUP5 AND PUSH1 0x24 DUP3 ADD MSTORE PUSH1 0x44 DUP1 DUP3 ADD DUP5 SWAP1 MSTORE DUP3 MLOAD DUP1 DUP4 SUB SWAP1 SWAP2 ADD DUP2 MSTORE PUSH1 0x64 SWAP1 SWAP2 ADD SWAP1 SWAP2 MSTORE PUSH1 0x20 DUP2 ADD DUP1 MLOAD PUSH28 0xFFFFFFFFFFFFFFFFFFFFFFFFFFFFFFFFFFFFFFFFFFFFFFFFFFFFFFFF AND PUSH32 0xA9059CBB00000000000000000000000000000000000000000000000000000000 OR SWAP1 MSTORE PUSH2 0x9A0 SWAP1 DUP5 SWAP1 PUSH2 0xA67 JUMP JUMPDEST POP POP POP JUMP JUMPDEST PUSH1 0x0 DUP1 SLOAD PUSH20 0xFFFFFFFFFFFFFFFFFFFFFFFFFFFFFFFFFFFFFFFF DUP4 DUP2 AND PUSH32 0xFFFFFFFFFFFFFFFFFFFFFFFF0000000000000000000000000000000000000000 DUP4 AND DUP2 OR DUP5 SSTORE PUSH1 0x40 MLOAD SWAP2 SWAP1 SWAP3 AND SWAP3 DUP4 SWAP2 PUSH32 0x8BE0079C531659141344CD1FD0A4F28419497F9722A3DAAFE3B4186F6B6457E0 SWAP2 SWAP1 LOG3 POP POP JUMP JUMPDEST PUSH1 0x0 DUP2 DUP2 JUMPDEST DUP5 MLOAD DUP2 LT ISZERO PUSH2 0xA5F JUMPI PUSH2 0xA4B DUP3 DUP7 DUP4 DUP2 MLOAD DUP2 LT PUSH2 0xA3E JUMPI PUSH2 0xA3E PUSH2 0xCC2 JUMP JUMPDEST PUSH1 0x20 MUL PUSH1 0x20 ADD ADD MLOAD PUSH2 0xB0B JUMP JUMPDEST SWAP2 POP DUP1 PUSH2 0xA57 DUP2 PUSH2 0xDC6 JUMP JUMPDEST SWAP2 POP POP PUSH2 0xA1F JUMP JUMPDEST POP SWAP4 SWAP3 POP POP POP JUMP JUMPDEST PUSH1 0x0 DUP1 PUSH1 0x20 PUSH1 0x0 DUP5 MLOAD PUSH1 0x20 DUP7 ADD PUSH1 0x0 DUP9 GAS CALL DUP1 PUSH2 0xA8A JUMPI PUSH1 0x40 MLOAD RETURNDATASIZE PUSH1 0x0 DUP3 RETURNDATACOPY RETURNDATASIZE DUP2 REVERT JUMPDEST POP POP PUSH1 0x0 MLOAD RETURNDATASIZE SWAP2 POP DUP2 ISZERO PUSH2 0xAA2 JUMPI DUP1 PUSH1 0x1 EQ ISZERO PUSH2 0xABC JUMP JUMPDEST PUSH20 0xFFFFFFFFFFFFFFFFFFFFFFFFFFFFFFFFFFFFFFFF DUP5 AND EXTCODESIZE ISZERO JUMPDEST ISZERO PUSH2 0x532 JUMPI PUSH1 0x40 MLOAD PUSH32 0x5274AFE700000000000000000000000000000000000000000000000000000000 DUP2 MSTORE PUSH20 0xFFFFFFFFFFFFFFFFFFFFFFFFFFFFFFFFFFFFFFFF DUP6 AND PUSH1 0x4 DUP3 ADD MSTORE PUSH1 0x24 ADD PUSH2 0x226 JUMP JUMPDEST PUSH1 0x0 DUP2 DUP4 LT PUSH2 0xB27 JUMPI PUSH1 0x0 DUP3 DUP2 MSTORE PUSH1 0x20 DUP5 SWAP1 MSTORE PUSH1 0x40 SWAP1 KECCAK256 PUSH2 0xB36 JUMP JUMPDEST PUSH1 0x0 DUP4 DUP2 MSTORE PUSH1 0x20 DUP4 SWAP1 MSTORE PUSH1 0x40 SWAP1 KECCAK256 JUMPDEST SWAP4 SWAP3 POP POP POP JUMP JUMPDEST DUP1 CALLDATALOAD PUSH20 0xFFFFFFFFFFFFFFFFFFFFFFFFFFFFFFFFFFFFFFFF DUP2 AND DUP2 EQ PUSH2 0xB61 JUMPI PUSH1 0x0 DUP1 REVERT JUMPDEST SWAP2 SWAP1 POP JUMP JUMPDEST PUSH1 0x0 DUP1 DUP4 PUSH1 0x1F DUP5 ADD SLT PUSH2 0xB78 JUMPI PUSH1 0x0 DUP1 REVERT JUMPDEST POP DUP2 CALLDATALOAD PUSH8 0xFFFFFFFFFFFFFFFF DUP2 GT ISZERO PUSH2 0xB90 JUMPI PUSH1 0x0 DUP1 REVERT JUMPDEST PUSH1 0x20 DUP4 ADD SWAP2 POP DUP4 PUSH1 0x20 DUP3 PUSH1 0x5 SHL DUP6 ADD ADD GT ISZERO PUSH2 0xBAB JUMPI PUSH1 0x0 DUP1 REVERT JUMPDEST SWAP3 POP SWAP3 SWAP1 POP JUMP JUMPDEST PUSH1 0x0 DUP1 PUSH1 0x0 DUP1 PUSH1 0x0 DUP1 PUSH1 0xA0 DUP8 DUP10 SUB SLT ISZERO PUSH2 0xBCB JUMPI PUSH1 0x0 DUP1 REVERT JUMPDEST PUSH2 0xBD4 DUP8 PUSH2 0xB3D JUMP JUMPDEST SWAP6 POP PUSH1 0x20 DUP8 ADD CALLDATALOAD SWAP5 POP PUSH2 0xBE9 PUSH1 0x40 DUP9 ADD PUSH2 0xB3D JUMP JUMPDEST SWAP4 POP PUSH1 0x60 DUP8 ADD CALLDATALOAD SWAP3 POP PUSH1 0x80 DUP8 ADD CALLDATALOAD PUSH8 0xFFFFFFFFFFFFFFFF DUP2 GT ISZERO PUSH2 0xC0C JUMPI PUSH1 0x0 DUP1 REVERT JUMPDEST PUSH2 0xC18 DUP10 DUP3 DUP11 ADD PUSH2 0xB66 JUMP JUMPDEST SWAP8 SWAP11 SWAP7 SWAP10 POP SWAP5 SWAP8 POP SWAP3 SWAP6 SWAP4 SWAP5 SWAP3 POP POP POP JUMP JUMPDEST PUSH1 0x0 PUSH1 0x20 DUP3 DUP5 SUB SLT ISZERO PUSH2 0xC3C JUMPI PUSH1 0x0 DUP1 REVERT JUMPDEST PUSH2 0xB36 DUP3 PUSH2 0xB3D JUMP JUMPDEST PUSH1 0x0 DUP1 PUSH1 0x0 PUSH1 0x40 DUP5 DUP7 SUB SLT ISZERO PUSH2 0xC5A JUMPI PUSH1 0x0 DUP1 REVERT JUMPDEST PUSH2 0xC63 DUP5 PUSH2 0xB3D JUMP JUMPDEST SWAP3 POP PUSH1 0x20 DUP5 ADD CALLDATALOAD PUSH8 0xFFFFFFFFFFFFFFFF DUP2 GT ISZERO PUSH2 0xC7F JUMPI PUSH1 0x0 DUP1 REVERT JUMPDEST PUSH2 0xC8B DUP7 DUP3 DUP8 ADD PUSH2 0xB66 JUMP JUMPDEST SWAP5 SWAP8 SWAP1 SWAP7 POP SWAP4 SWAP5 POP POP POP POP JUMP JUMPDEST PUSH1 0x0 DUP1 PUSH1 0x40 DUP4 DUP6 SUB SLT ISZERO PUSH2 0xCAB JUMPI PUSH1 0x0 DUP1 REVERT JUMPDEST PUSH2 0xCB4 DUP4 PUSH2 0xB3D JUMP JUMPDEST SWAP5 PUSH1 0x20 SWAP4 SWAP1 SWAP4 ADD CALLDATALOAD SWAP4 POP POP POP JUMP JUMPDEST PUSH32 0x4E487B7100000000000000000000000000000000000000000000000000000000 PUSH1 0x0 MSTORE PUSH1 0x32 PUSH1 0x4 MSTORE PUSH1 0x24 PUSH1 0x0 REVERT JUMPDEST PUSH1 0x0 DUP3 CALLDATALOAD PUSH32 0xFFFFFFFFFFFFFFFFFFFFFFFFFFFFFFFFFFFFFFFFFFFFFFFFFFFFFFFFFFFFFF81 DUP4 CALLDATASIZE SUB ADD DUP2 SLT PUSH2 0xD25 JUMPI PUSH1 0x0 DUP1 REVERT JUMPDEST SWAP2 SWAP1 SWAP2 ADD SWAP3 SWAP2 POP POP JUMP JUMPDEST PUSH1 0x0 DUP1 DUP4 CALLDATALOAD PUSH32 0xFFFFFFFFFFFFFFFFFFFFFFFFFFFFFFFFFFFFFFFFFFFFFFFFFFFFFFFFFFFFFFE1 DUP5 CALLDATASIZE SUB ADD DUP2 SLT PUSH2 0xD64 JUMPI PUSH1 0x0 DUP1 REVERT JUMPDEST DUP4 ADD DUP1 CALLDATALOAD SWAP2 POP PUSH8 0xFFFFFFFFFFFFFFFF DUP3 GT ISZERO PUSH2 0xD7F JUMPI PUSH1 0x0 DUP1 REVERT JUMPDEST PUSH1 0x20 ADD SWAP2 POP PUSH1 0x5 DUP2 SWAP1 SHL CALLDATASIZE SUB DUP3 SGT ISZERO PUSH2 0xBAB JUMPI PUSH1 0x0 DUP1 REVERT JUMPDEST PUSH32 0x4E487B7100000000000000000000000000000000000000000000000000000000 PUSH1 0x0 MSTORE PUSH1 0x11 PUSH1 0x4 MSTORE PUSH1 0x24 PUSH1 0x0 REVERT JUMPDEST PUSH1 0x0 PUSH32 0xFFFFFFFFFFFFFFFFFFFFFFFFFFFFFFFFFFFFFFFFFFFFFFFFFFFFFFFFFFFFFFFF DUP3 SUB PUSH2 0xDF7 JUMPI PUSH2 0xDF7 PUSH2 0xD97 JUMP JUMPDEST POP PUSH1 0x1 ADD SWAP1 JUMP JUMPDEST PUSH32 0x4E487B7100000000000000000000000000000000000000000000000000000000 PUSH1 0x0 MSTORE PUSH1 0x12 PUSH1 0x4 MSTORE PUSH1 0x24 PUSH1 0x0 REVERT JUMPDEST PUSH1 0x0 DUP3 PUSH2 0xE3C JUMPI PUSH2 0xE3C PUSH2 0xDFE JUMP JUMPDEST POP DIV SWAP1 JUMP JUMPDEST PUSH1 0x0 DUP3 PUSH2 0xE50 JUMPI PUSH2 0xE50 PUSH2 0xDFE JUMP JUMPDEST POP MOD SWAP1 JUMP JUMPDEST DUP1 DUP3 ADD DUP1 DUP3 GT ISZERO PUSH2 0x5A8 JUMPI PUSH2 0x5A8 PUSH2 0xD97 JUMP INVALID LOG2 PUSH5 0x6970667358 0x22 SLT KECCAK256 0xF8 0xA8 DUP2 PUSH20 0x524A7DC4414F8EDFB8A1EEC91D3D3D4B89393E83 SWAP1 MSIZE MULMOD DUP10 CALLER NOT SWAP3 0xEF PUSH5 0x736F6C6343 STOP ADDMOD EQ STOP CALLER "},"methodIdentifiers":{"claim(address,uint256,address,uint256,bytes32[])":"12d18ed6","claimMulti(address,(address,uint256,uint256,bytes32[])[])":"20ce64de","isClaimed(address,uint256)":"562beba8","merkleRoot(address)":"e2111586","owner()":"8da5cb5b","renounceOwnership()":"715018a6","transferOwnership(address)":"f2fde38b","update(address)":"1c1b8772","updateMerkleRoot(address,bytes32)":"e786818e"}}}}}