{
  "_format": "hh-sol-artifact-1",
  "contractName": "MultiMerkleStash",
  "sourceName": "contracts/MultiMerkleStash.sol",
  "abi": [
    {
      "inputs": [
        {
          "internalType": "address",
          "name": "token",
          "type": "address"
        }
      ],
      "name": "SafeERC20FailedOperation",
      "type": "error"
    },
    {
      "anonymous": false,
      "inputs": [
        {
          "indexed": true,
          "internalType": "address",
          "name": "token",
          "type": "address"
        },
        {
          "indexed": false,
          "internalType": "uint256",
          "name": "index",
          "type": "uint256"
        },
        {
          "indexed": false,
          "internalType": "uint256",
          "name": "amount",
          "type": "uint256"
        },
        {
          "indexed": true,
          "internalType": "address",
          "name": "account",
          "type": "address"
        },
        {
          "indexed": true,
          "internalType": "uint256",
          "name": "update",
          "type": "uint256"
        }
      ],
      "name": "Claimed",
      "type": "event"
    },
    {
      "anonymous": false,
      "inputs": [
        {
          "indexed": true,
          "internalType": "address",
          "name": "token",
          "type": "address"
        },
        {
          "indexed": true,
          "internalType": "bytes32",
          "name": "merkleRoot",
          "type": "bytes32"
        },
        {
          "indexed": true,
          "internalType": "uint256",
          "name": "update",
          "type": "uint256"
        }
      ],
      "name": "MerkleRootUpdated",
      "type": "event"
    },
    {
      "anonymous": false,
      "inputs": [
        {
          "indexed": true,
          "internalType": "address",
          "name": "previousOwner",
          "type": "address"
        },
        {
          "indexed": true,
          "internalType": "address",
          "name": "newOwner",
          "type": "address"
        }
      ],
      "name": "OwnershipTransferred",
      "type": "event"
    },
    {
      "inputs": [
        {
          "internalType": "address",
          "name": "token",
          "type": "address"
        },
        {
          "internalType": "uint256",
          "name": "index",
          "type": "uint256"
        },
        {
          "internalType": "address",
          "name": "account",
          "type": "address"
        },
        {
          "internalType": "uint256",
          "name": "amount",
          "type": "uint256"
        },
        {
          "internalType": "bytes32[]",
          "name": "merkleProof",
          "type": "bytes32[]"
        }
      ],
      "name": "claim",
      "outputs": [],
      "stateMutability": "nonpayable",
      "type": "function"
    },
    {
      "inputs": [
        {
          "internalType": "address",
          "name": "account",
          "type": "address"
        },
        {
          "components": [
            {
              "internalType": "address",
              "name": "token",
              "type": "address"
            },
            {
              "internalType": "uint256",
              "name": "index",
              "type": "uint256"
            },
            {
              "internalType": "uint256",
              "name": "amount",
              "type": "uint256"
            },
            {
              "internalType": "bytes32[]",
              "name": "merkleProof",
              "type": "bytes32[]"
            }
          ],
          "internalType": "struct MultiMerkleStash.claimParam[]",
          "name": "claims",
          "type": "tuple[]"
        }
      ],
      "name": "claimMulti",
      "outputs": [],
      "stateMutability": "nonpayable",
      "type": "function"
    },
    {
      "inputs": [
        {
          "internalType": "address",
          "name": "token",
          "type": "address"
        },
        {
          "internalType": "uint256",
          "name": "index",
          "type": "uint256"
        }
      ],
      "name": "isClaimed",
      "outputs": [
        {
          "internalType": "bool",
          "name": "",
          "type": "bool"
        }
      ],
      "stateMutability": "view",
      "type": "function"
    },
    {
      "inputs": [
        {
          "internalType": "address",
          "name": "",
          "type": "address"
        }
      ],
      "name": "merkleRoot",
      "outputs": [
        {
          "internalType": "bytes32",
          "name": "",
          "type": "bytes32"
        }
      ],
      "stateMutability": "view",
      "type": "function"
    },
    {
      "inputs": [],
      "name": "owner",
      "outputs": [
        {
          "internalType": "address",
          "name": "",
          "type": "address"
        }
      ],
      "stateMutability": "view",
      "type": "function"
    },
    {
      "inputs": [],
      "name": "renounceOwnership",
      "outputs": [],
      "stateMutability": "nonpayable",
      "type": "function"
    },
    {
      "inputs": [
        {
          "internalType": "address",
          "name": "newOwner",
          "type": "address"
        }
      ],
      "name": "transferOwnership",
      "outputs": [],
      "stateMutability": "nonpayable",
      "type": "function"
    },
    {
      "inputs": [
        {
          "internalType": "address",
          "name": "",
          "type": "address"
        }
      ],
      "name": "update",
      "outputs": [
        {
          "internalType": "uint256",
          "name": "",
          "type": "uint256"
        }
      ],
      "stateMutability": "view",
      "type": "function"
    },
    {
      "inputs": [
        {
          "internalType": "address",
          "name": "token",
          "type": "address"
        },
        {
          "internalType": "bytes32",
          "name": "_merkleRoot",
          "type": "bytes32"
        }
      ],
      "name": "updateMerkleRoot",
      "outputs": [],
      "stateMutability": "nonpayable",
      "type": "function"
    }
  ],
  "bytecode": "0x6080604052600080546001600160a01b03191673f930ebbd05ef8b25b1797b9b2109ddc9b0d4306317905534801561003657600080fd5b50610e9e806100466000396000f3fe608060405234801561001057600080fd5b50600436106100a35760003560e01c8063715018a611610076578063e21115861161005b578063e211158614610156578063e786818e14610176578063f2fde38b1461018957600080fd5b8063715018a6146101265780638da5cb5b1461012e57600080fd5b806312d18ed6146100a85780631c1b8772146100bd57806320ce64de146100f0578063562beba814610103575b600080fd5b6100bb6100b6366004610bb2565b61019c565b005b6100dd6100cb366004610c2a565b60026020526000908152604090205481565b6040519081526020015b60405180910390f35b6100bb6100fe366004610c45565b61045f565b610116610111366004610c98565b610538565b60405190151581526020016100e7565b6100bb6105ae565b60005460405173ffffffffffffffffffffffffffffffffffffffff90911681526020016100e7565b6100dd610164366004610c2a565b60016020526000908152604090205481565b6100bb610184366004610c98565b61063b565b6100bb610197366004610c2a565b61075b565b73ffffffffffffffffffffffffffffffffffffffff8616600090815260016020526040812054900361022f576040517f08c379a000000000000000000000000000000000000000000000000000000000815260206004820152600660248201527f66726f7a656e000000000000000000000000000000000000000000000000000060448201526064015b60405180910390fd5b6102398686610538565b156102a0576040517f08c379a000000000000000000000000000000000000000000000000000000000815260206004820152601560248201527f44726f7020616c726561647920636c61696d65642e00000000000000000000006044820152606401610226565b60408051602081018790527fffffffffffffffffffffffffffffffffffffffff000000000000000000000000606087901b16918101919091526054810184905260009060740160405160208183030381529060405280519060200120905061035f838380806020026020016040519081016040528093929190818152602001838360200280828437600092018290525073ffffffffffffffffffffffffffffffffffffffff8d16815260016020526040902054925085915061088b9050565b6103c5576040517f08c379a000000000000000000000000000000000000000000000000000000000815260206004820152600e60248201527f496e76616c69642070726f6f662e0000000000000000000000000000000000006044820152606401610226565b6103cf87876108a1565b6103f073ffffffffffffffffffffffffffffffffffffffff88168686610913565b73ffffffffffffffffffffffffffffffffffffffff8781166000818152600260209081526040918290205482518b815291820189905293891692917f4766921f5c59646d22d7d266a29164c8e9623684d8dfdbd931731dfdca025238910160405180910390a450505050505050565b60005b818110156105325761052283838381811061047f5761047f610cc2565b90506020028101906104919190610cf1565b61049f906020810190610c2a565b8484848181106104b1576104b1610cc2565b90506020028101906104c39190610cf1565b60200135868686868181106104da576104da610cc2565b90506020028101906104ec9190610cf1565b6040013587878781811061050257610502610cc2565b90506020028101906105149190610cf1565b6100b6906060810190610d2f565b61052b81610dc6565b9050610462565b50505050565b60008061054761010084610e2d565b9050600061055761010085610e41565b73ffffffffffffffffffffffffffffffffffffffff861660009081526003602090815260408083206002835281842054845282528083209583529490529290922054600190921b9182169091149150505b92915050565b60005473ffffffffffffffffffffffffffffffffffffffff16331461062f576040517f08c379a000000000000000000000000000000000000000000000000000000000815260206004820181905260248201527f4f776e61626c653a2063616c6c6572206973206e6f7420746865206f776e65726044820152606401610226565b61063960006109a5565b565b60005473ffffffffffffffffffffffffffffffffffffffff1633146106bc576040517f08c379a000000000000000000000000000000000000000000000000000000000815260206004820181905260248201527f4f776e61626c653a2063616c6c6572206973206e6f7420746865206f776e65726044820152606401610226565b73ffffffffffffffffffffffffffffffffffffffff821660009081526002602052604081208054600192906106f2908490610e55565b909155505073ffffffffffffffffffffffffffffffffffffffff8216600081815260016020908152604080832085905560029091528082205490519092849290917fbdc375de8a677af383c6ee6f8b2027dbd231c3c47453ce81d1ce8f1bcdb722dc9190a45050565b60005473ffffffffffffffffffffffffffffffffffffffff1633146107dc576040517f08c379a000000000000000000000000000000000000000000000000000000000815260206004820181905260248201527f4f776e61626c653a2063616c6c6572206973206e6f7420746865206f776e65726044820152606401610226565b73ffffffffffffffffffffffffffffffffffffffff811661087f576040517f08c379a000000000000000000000000000000000000000000000000000000000815260206004820152602660248201527f4f776e61626c653a206e6577206f776e657220697320746865207a65726f206160448201527f64647265737300000000000000000000000000000000000000000000000000006064820152608401610226565b610888816109a5565b50565b6000826108988584610a1a565b14949350505050565b60006108af61010083610e2d565b905060006108bf61010084610e41565b73ffffffffffffffffffffffffffffffffffffffff949094166000908152600360209081526040808320600283528184205484528252808320948352939052919091208054600190941b9093179092555050565b6040805173ffffffffffffffffffffffffffffffffffffffff8416602482015260448082018490528251808303909101815260649091019091526020810180517bffffffffffffffffffffffffffffffffffffffffffffffffffffffff167fa9059cbb000000000000000000000000000000000000000000000000000000001790526109a0908490610a67565b505050565b6000805473ffffffffffffffffffffffffffffffffffffffff8381167fffffffffffffffffffffffff0000000000000000000000000000000000000000831681178455604051919092169283917f8be0079c531659141344cd1fd0a4f28419497f9722a3daafe3b4186f6b6457e09190a35050565b600081815b8451811015610a5f57610a4b82868381518110610a3e57610a3e610cc2565b6020026020010151610b0b565b915080610a5781610dc6565b915050610a1f565b509392505050565b600080602060008451602086016000885af180610a8a576040513d6000823e3d81fd5b50506000513d91508115610aa2578060011415610abc565b73ffffffffffffffffffffffffffffffffffffffff84163b155b15610532576040517f5274afe700000000000000000000000000000000000000000000000000000000815273ffffffffffffffffffffffffffffffffffffffff85166004820152602401610226565b6000818310610b27576000828152602084905260409020610b36565b60008381526020839052604090205b9392505050565b803573ffffffffffffffffffffffffffffffffffffffff81168114610b6157600080fd5b919050565b60008083601f840112610b7857600080fd5b50813567ffffffffffffffff811115610b9057600080fd5b6020830191508360208260051b8501011115610bab57600080fd5b9250929050565b60008060008060008060a08789031215610bcb57600080fd5b610bd487610b3d565b955060208701359450610be960408801610b3d565b935060608701359250608087013567ffffffffffffffff811115610c0c57600080fd5b610c1889828a01610b66565b979a9699509497509295939492505050565b600060208284031215610c3c57600080fd5b610b3682610b3d565b600080600060408486031215610c5a57600080fd5b610c6384610b3d565b9250602084013567ffffffffffffffff811115610c7f57600080fd5b610c8b86828701610b66565b9497909650939450505050565b60008060408385031215610cab57600080fd5b610cb483610b3d565b946020939093013593505050565b7f4e487b7100000000000000000000000000000000000000000000000000000000600052603260045260246000fd5b600082357fffffffffffffffffffffffffffffffffffffffffffffffffffffffffffffff81833603018112610d2557600080fd5b9190910192915050565b60008083357fffffffffffffffffffffffffffffffffffffffffffffffffffffffffffffffe1843603018112610d6457600080fd5b83018035915067ffffffffffffffff821115610d7f57600080fd5b6020019150600581901b3603821315610bab57600080fd5b7f4e487b7100000000000000000000000000000000000000000000000000000000600052601160045260246000fd5b60007fffffffffffffffffffffffffffffffffffffffffffffffffffffffffffffffff8203610df757610df7610d97565b5060010190565b7f4e487b7100000000000000000000000000000000000000000000000000000000600052601260045260246000fd5b600082610e3c57610e3c610dfe565b500490565b600082610e5057610e50610dfe565b500690565b808201808211156105a8576105a8610d9756fea2646970667358221220f8a88173524a7dc4414f8edfb8a1eec91d3d3d4b89393e8390590989331992ef64736f6c63430008140033",
  "linkReferences": {},
  "deployedLinkReferences": {}
}